:0400000094EF03F086
:08000800046ED8CF05F0E0CF33
:1000100006F00001E9CF0CF0EACF07F0E1CF08F0DD
:10002000E2CF09F0D9CF0AF0DACF0BF0F3CF12F01C
:10003000F4CF13F0FACF14F0F5CF15F0F6CF16F099
:10004000F7CF17F000C00EF001C00FF002C010F0A3
:1000500003C011F0F2AA30EF00F0F2B422EF03F087
:100060009DA036EF00F09EB039EF03F0F2A83CEF10
:1000700000F0F2B261EF03F00EC000F00FC001F02B
:1000800010C002F011C003F00CC0E9FF07C0EAFF86
:10009000078E08C0E1FF09C0E2FF0AC0D9FF0BC00C
:1000A000DAFF12C0F3FF13C0F4FF14C0FAFF15C04B
:1000B000F5FF16C0F6FF17C0F7FF045006C0E0FFBB
:1000C00005C0D8FF1000D8B203D0EA6A6F0EE96EFF
:1000D000006A016A026A036A6F6B706B716B726B04
:1000E0006E516D116C116B112CE0200E736FD89056
:1000F0006737683769376A376F37703771377237E4
:100100006E51725D08E16D51715D05E16C51705D7C
:1001100002E16B516F5D0FE36B516F5F6C51D8A0C3
:100120006C3D705F6D51D8A06D3D715F6E51D8A070
:100130006E3D725FD8800036013602360336732F6B
:10014000D6D76FC0EFFF70C0ECFF71C0ECFF72C07C
:10015000ECFF12003F0E626F060E636F5B0E646F62
:100160004F0E656F660E666F6D0E676F7D0E686F62
:10017000070E696F6A696F0E6B6F6C6B036A615172
:10018000620FE96E000E0320EA6EEFCF6CF06CC0D8
:1001900001F012005E2C69D1010E405CFA0FD8B05C
:1001A00063D1060F46EF02F0D882EA6A5F0EE96E6D
:1001B00055C06AF054C069F053C068F052C067F08F
:1001C0006E6B6D6B6C6B0A0E6B6F7DDF5FC02AF020
:1001D0002AC061F0BFDF01C02BF0896A2BC08BFF02
:1001E000200E896E41D1D89255C06AF054C069F092
:1001F00053C068F052C067F06E6B6D6B6C6B0A0E8B
:100200006B6F61DF03C062F002C061F001C060F09B
:1002100000C05FF0D882EA6A630EE96E03C06AF03C
:1002200002C069F001C068F000C067F06E6B6D6BD2
:100230006C6B0A0E6B6F47DF63C02AF02AC061F057
:1002400089DF01C02CF0896A2CC08BFF2A520AE199
:10025000315208E1325206E1335204E1345202E1F4
:10026000896A02D0100E896EFFD0D89255C06AF00C
:1002700054C069F053C068F052C067F06E6B6D6B8C
:100280006C6B640E6B6F1FDF03C062F002C061F025
:1002900001C060F000C05FF0D882EA6A630EE96EC8
:1002A00003C06AF002C069F001C068F000C067F0E6
:1002B0006E6B6D6B6C6B0A0E6B6F05DF63C02AF0A3
:1002C0002AC031F02AC061F045DF01C02DF0896AF3
:1002D0002DC08BFF2A5208E1325206E1335204E16D
:1002E000345202E1896A02D0080E896EBDD0D892DC
:1002F00055C06AF054C069F053C068F052C067F04E
:100300006E6B6D6B030E6C6FE80E6B6FDCDE03C003
:1003100062F002C061F001C060F000C05FF0D882FE
:10032000EA6A630EE96E03C06AF002C069F001C0B8
:1003300068F000C067F06E6B6D6B6C6B0A0E6B6FD4
:10034000C2DE63C02AF02AC032F02AC061F002DFA8
:1003500001C02EF0896A2EC08BFF2A5206E133526B
:1003600004E1345202E1896A02D0040E896E7CD025
:10037000D89255C06AF054C069F053C068F052C0BA
:1003800067F06E6B6D6B270E6C6F100E6B6F9BDEE4
:1003900003C062F002C061F001C060F000C05FF015
:1003A000D882EA6A630EE96E03C06AF002C069F09F
:1003B00001C068F000C067F06E6B6D6B6C6B0A0E6D
:1003C0006B6F81DE63C02AF02AC033F02AC061F06F
:1003D000C1DE01C02FF0896A2FC08BFF2A5204E1D1
:1003E000345202E1896A02D0020E896E3DD0D89261
:1003F00055C06AF054C069F053C068F052C067F04D
:100400006E6B010E6D6F860E6C6FA00E6B6F5BDEF8
:1004100003C062F002C061F001C060F000C05FF094
:10042000D882EA6A630EE96E03C06AF002C069F01E
:1004300001C068F000C067F06E6B6D6B6C6B0A0EEC
:100440006B6F41DE63C02AF02AC034F02AC061F02D
:1004500081DE01C030F0896A30C08BFF2A5202E190
:10046000896A02D0010E896E01D0896A402A405003
:1004700006080AE2010E406E5DC055F05CC054F003
:100480005BC053F05AC052F02DEF03F0E824F76A36
:10049000F736A70FF66E040EF7220A00F550FA6E33
:1004A0000800F550F96EA801E6016A02EE02700339
:1004B000EE036351016A625D03E262C000F00CD09A
:1004C000006A080E646F623700366351005CD8B072
:1004D000006E0136642FF7D712008C908C92010EBB
:1004E000636F6351080816E362C003F061C0E9FF5F
:1004F00062C0EAFFEF50800B02E18C9401D08C8443
:1005000062C0EAFF61C0E9FFD890EF368C808C9022
:10051000632BE7D78C828C921200360E566E590EE2
:10052000576E010E415CFC0FD8B06FD0040F11EF75
:1005300003F056C062F00A0E636FBBDF00C05DF0CF
:100540005DC061F007DE01C05DF08C968C988C9ADE
:100550008C9C626B5D0E616FC0DF8C968C988C9A60
:100560008C8C53D056C062F00A0E636FA2DF01C0BC
:1005700062F00A0E636F9DDF00C05EF05EC061F046
:10058000E9DD01C05EF08C968C988C9A8C9C626B35
:100590005E0E616FA2DF8C968C988C8A8C9C35D015
:1005A00057C062F00A0E636F84DF00C05FF05FC067
:1005B00061F0D0DD01C05FF08C968C988C9A8C9C99
:1005C000626B5F0E616F89DF8C968C888C9A8C9C35
:1005D00057C062F00A0E636F6CDF01C062F00A0E52
:1005E000636F67DF00C060F060C061F0B3DD01C021
:1005F00060F08C968C988C9A8C9C626B600E616F0C
:100600006CDF8C868C988C9A8C9C412A4150040813
:1006100006E2010E416E5BC056F05CC057F032EF4F
:1006200003F0E824F76AF7363D0FF66E060EF72260
:100630000A00F550FA6E0800F550F96E32056405AF
:10064000A005D00545C05DF044C05CF043C05BF040
:1006500042C05AF0010E5E6E9DD546C05BF047C0A9
:100660005CF05BD7D76A060ED66EF294F2943CEF3C
:1006700000F0D70ECF6ECE681A2AD8B41B2A1A50B3
:10068000E8080BE11B2C09D01B6A1A6A1C2A198086
:100690001C503B0802E21C6A1D2A209081B2208077
:1006A000209281B62082209481B42084209681B843
:1006B0002086209881BA20883C8204009E903CEFDE
:1006C00000F0F292010E3526D8B0362AD8B4372A77
:1006D000D8B4382A38520DE137500E080EE2FF0A1E
:1006E00008E13650410809E2FF0A03E135503F08AE
:1006F00004E2386A376A366A356AF2923CEF00F0F3
:10070000EA6A590EE96EEF500EE0050E016E006ABE
:10071000002EFED7012EFBD72E0E006E002EFED728
:1007200000D0EF2EF2D71200F86AD09E078E360E58
:10073000006E100E016E020EE96E000EEA6EEE6A99
:10074000002EFDD7012EFBD7700ED36E9B9C9B9E77
:100750003C903C923F6A406A416A556A546A536AC7
:10076000526A0F01386B396B3A6B3B6B3C6B776AA3
:10077000786A796A720ED36E9B9C9B9E000E926E75
:100780003F0E936E000E946E956E96909692969490
:100790009696C150F00BC16E000E386F3C6F396FEA
:1007A0003A6F3B6FF19CF292F298C70ED56ED76A02
:1007B000060ED66EF294F28A070ECD6ECC6A9D902C
:1007C000C00EF212090E256E380E246E040E586EFD
:1007D000FA0E596E000194DF582E01D002D00F019D
:1007E000F7D7456A010E446EE20E436E400E426E2C
:1007F000040E586EFA0E596E83DF582EFBD7350E55
:0C080000466E440E476E0F01E1D7FFD793
:020000040030CA
:0E0000000028193C003F00000FC00FE00F4029
:00000001FF
;PIC18F46K22
;CRC=3D2D  CREATED="13-May-18 18:52"
