:0400000050EF05F0C8
:08000800046ED8CF05F0E0CF33
:1000100006F00001E9CF0CF0EACF07F0E1CF08F0DD
:10002000E2CF09F0D9CF0AF0DACF0BF0F3CF12F01C
:10003000F4CF13F0FACF14F0F5CF15F0F6CF16F099
:10004000F7CF17F000C00EF001C00FF002C010F0A3
:1000500003C011F0F2AA30EF00F0F2B43FEF03F06A
:100060009DA036EF00F09EB056EF03F0F2A83CEFF3
:1000700000F0F2B27FEF03F07DA242EF00F07EB21B
:1000800069EF00F00EC000F00FC001F010C002F0E8
:1000900011C003F00CC0E9FF07C0EAFF078E08C0DB
:1000A000E1FF09C0E2FF0AC0D9FF0BC0DAFF12C0AE
:1000B000F3FF13C0F4FF14C0FAFF15C0F5FF16C01C
:1000C000F6FF17C0F7FF045006C0E0FF05C0D8FFD9
:1000D00010005E500A0807E14FC04DF04EC04CF0D2
:1000E0004F6A4E6A5E6A5F50140803E14F6A4E6AB7
:1000F0005F6A3C0E0F01506FB00E4F6F7E927E9282
:10010000000142EF00F0D8B203D0EA6A8D0EE96E2A
:10011000006A016A026A036A8D6B8E6B8F6B906B4B
:100120008C518B118A1189112CE0200E916FD8907F
:1001300085378637873788378D378E378F379037B3
:100140008C51905D08E18B518F5D05E18A518E5D88
:1001500002E189518D5D0FE389518D5F8A51D8A0ED
:100160008A3D8E5F8B51D8A08B3D8F5F8C51D8A07C
:100170008C3D905FD8800036013602360336912FD1
:10018000D6D78DC0EFFF8EC0ECFF8FC0ECFF90C0C4
:10019000ECFF12003F0E806F060E816F5B0E826FC8
:1001A0004F0E836F660E846F6D0E856F7D0E866FAA
:1001B000070E876F88696F0E896F8A6B036A7F519C
:1001C000800FE96E000E0320EA6EEFCF8AF08AC03E
:1001D00001F012007C2D69D1010E415CFA0FD8B0FC
:1001E00063D1060F66EF02F0D882EA6A7D0EE96EEF
:1001F00069C088F068C087F067C086F066C085F087
:100200008C6B8B6B8A6B0A0E896F7DDF7DC02BF048
:100210002BC07FF0BFDF01C02CF0896A2CC08BFFA0
:10022000200E896E41D1D89269C088F068C087F0ED
:1002300067C086F066C085F08C6B8B6B8A6B0A0E8C
:10024000896F61DF03C080F002C07FF001C07EF0E3
:1002500000C07DF0D882EA6A810EE96E03C088F0A2
:1002600002C087F001C086F000C085F08C6B8B6BFC
:100270008A6B0A0E896F47DF81C02BF02BC07FF09D
:1002800089DF01C02DF0896A2DC08BFF2B520AE156
:10029000325208E1335206E1345204E1355202E1B0
:1002A000896A02D0100E896EFFD0D89269C088F09A
:1002B00068C087F067C086F066C085F08C6B8B6B7A
:1002C0008A6B640E896F1FDF03C080F002C07FF06D
:1002D00001C07EF000C07DF0D882EA6A810EE96E2E
:1002E00003C088F002C087F001C086F000C085F02E
:1002F0008C6B8B6B8A6B0A0E896F05DF81C02BF0CC
:100300002BC032F02BC07FF045DF01C02EF0896A90
:100310002EC08BFF2B5208E1335206E1345204E128
:10032000355202E1896A02D0080E896EBDD0D8929A
:1003300069C088F068C087F067C086F066C085F045
:100340008C6B8B6B030E8A6FE80E896FDCDE03C04B
:1003500080F002C07FF001C07EF000C07DF0D88246
:10036000EA6A810EE96E03C088F002C087F001C01E
:1003700086F000C085F08C6B8B6B8A6B0A0E896FE0
:10038000C2DE81C02BF02BC033F02BC07FF002DF28
:1003900001C02FF0896A2FC08BFF2B5206E1345227
:1003A00004E1355202E1896A02D0040E896E7CD0E4
:1003B000D89269C088F068C087F067C086F066C0D0
:1003C00085F08C6B8B6B270E8A6F100E896F9BDE0E
:1003D00003C080F002C07FF001C07EF000C07DF05D
:1003E000D882EA6A810EE96E03C088F002C087F005
:1003F00001C086F000C085F08C6B8B6B8A6B0A0E97
:10040000896F81DE81C02BF02BC034F02BC07FF0D0
:10041000C1DE01C030F0896A30C08BFF2B5204E18D
:10042000355202E1896A02D0020E896E3DD0D8921F
:1004300069C088F068C087F067C086F066C085F044
:100440008C6B010E8B6F860E8A6FA00E896F5BDE40
:1004500003C080F002C07FF001C07EF000C07DF0DC
:10046000D882EA6A810EE96E03C088F002C087F084
:1004700001C086F000C085F08C6B8B6B8A6B0A0E16
:10048000896F41DE81C02BF02BC035F02BC07FF08F
:1004900081DE01C031F0896A31C08BFF2B5202E14D
:1004A000896A02D0010E896E01D0896A412A4150C1
:1004B00006080AE2010E416E7BC069F07AC068F05E
:1004C00079C067F078C066F04AEF03F0E824F76A75
:1004D000F736E70FF66E040EF7220A00F550FA6EB3
:1004E0000800F550F96EE8012602AA022E03B003B7
:1004F0002E048151016A805D03E280C000F00CD0BF
:10050000006A080E826F803700368151005CD8B0D7
:10051000006E0136822FF7D712008C908C92010E5C
:10052000816F8151080816E380C003F07FC0E9FFA6
:1005300080C0EAFFEF50800B02E18C9401D08C84E4
:1005400080C0EAFF7FC0E9FFD890EF368C808C90A6
:10055000812BE7D78C828C921200010E435CFC0F3A
:10056000D8B070D0040F2EEF03F06AC080F00A0EEE
:10057000816FBFDF00C07BF07BC07FF00BDE01C06E
:100580007BF08C968C988C9A8C9C806B7B0E7F6F0A
:10059000C4DF8C968C988C9A8C8C54D06AC080F076
:1005A0000A0E816FA6DF01C080F00A0E816FA1DF05
:1005B00000C07CF07CC07FF0EDDD01C07CF08C964B
:1005C0008C988C9A8C9C806B7C0E7F6FA6DF8C96AF
:1005D0008C988C8A8C9C36D06BC080F00A0E816F10
:1005E00088DF00C07DF07DC07FF0D4DD01C07DF0EC
:1005F0008C968C988C9A8C9C806B7D0E7F6F8DDF97
:100600008C968C888C9A8C9C1DD06BC080F00A0EC6
:10061000816F6FDF01C080F00A0E816F6ADF00C05A
:100620007EF07EC07FF0B6DD01C07EF08C968C98A7
:100630008C9A8C9C806B7E0E7F6F6FDF8C868C9883
:100640008C9A8C9C432A4350040806E2010E436EA8
:1006500079C06AF07AC06BF04FEF03F0E824F76AD4
:10066000F736770FF66E060EF7220A00F550FA6E8F
:100670000800F550F96E6A059C05D8050A0647C0C2
:100680007BF046C07AF045C079F044C078F0010EA6
:100690007C6FA0D551C079F050C07AF05ED7D76A90
:1006A000060ED66EF294F29442EF00F08D74D70EDF
:1006B000CF6ECE681B2AD8B41C2A1B50E8080BE169
:1006C0001C2C09D01C6A1B6A1D2A1A801D503B086D
:1006D00002E21D6A1E2A219081B22180219281B6F8
:1006E0002182219481B42184219681B82186219888
:1006F00081BA21883D8204009E9042EF00F0F29280
:10070000010E3626D8B0372AD8B4382AD8B4392AB8
:1007100039520DE138500E080EE2FF0A08E1375059
:10072000410809E2FF0A03E136503F0804E2396A52
:10073000386A376A366A5F6A4E2AD8B44F2AF2920C
:1007400042EF00F0080E016E040E006E002EFED780
:100750008D909690040E006E002EFED774378D9209
:10076000D8B09682D8A09692968084A0FED7012E0B
:10077000EBD7040E006E002EFED78D9096900000F1
:100780009682040E006E002EFED7040E006E002E20
:10079000FED7968084A0FED7016A040E006E002E5C
:1007A000FED784B201808D9096908D929692120021
:1007B0009682040E006E002EFED79680040E006E08
:1007C000002EFED78D929692040E006E002EFED75C
:1007D0008D909690D00E746FB5DF070E746FB2DFF8
:1007E000100E746FAFDF96920000968084A0FED743
:1007F000040E006E002EFED700D000009682040E7C
:10080000006E002EFED794EF05F0EA6A6C0EE96EDA
:10081000EF500EE0050E016E006A002EFED7012E8D
:10082000FBD72E0E006E002EFED700D0EF2EF2D793
:100830001200080E746F00C075F09682040E006EF0
:10084000002EFED7968084A0FED784B2D88084A2E2
:10085000D8900136040E006E002EFED796908D9033
:10086000742FEBD79682040E006E002EFED78D9269
:100870007551D8A496920000968084A0FED7040EED
:10088000006E002EFED78D909690040E006E002E06
:10089000FED78D92969212009682040E006E002E64
:1008A000FED79680040E006E002EFED78D92969293
:1008B000040E006E002EFED78D909690D00E746FB1
:1008C00041DF6CC074F03EDF9682040E006E002E95
:1008D000FED79680040E006E002EFED784A0FED7B1
:1008E0008D929692040E006E002EFED78D909690FB
:1008F000D10E746F27DF006A9CDF01C06DF0969205
:100900000000968084A0FED7040E006E002EFED755
:1009100000D000009682040E006E002EFED76DC03F
:1009200001F01200196AF2BE198EF29E73C080F0B7
:100930000A0E816FDEDD19BEF28E0138746FF00E83
:100940007417196AF2BE198EF29E73C080F00A0EF7
:10095000816FCFDD19BEF28E00507425016E12003A
:10096000729F3F0E70179682040E006E002EFED707
:100970009680040E006E002EFED78D929692040E85
:10098000006E002EFED78D909690D00E746FDADE3A
:10099000746BD8DE72C073F0C5DF01C073F001C0A4
:1009A00074F0D0DE71C073F0BDDF01C073F001C020
:1009B00074F0C8DE70C073F0B5DF01C073F001C021
:1009C00074F0C0DE6FC073F0ADDF01C073F001C022
:1009D00074F0B8DE6CC073F0A5DF01C073F001C025
:1009E00074F0B0DE6DC073F09DDF01C073F001C024
:1009F00074F0A8DE6EC073F095DF01C073F001C023
:100A000074F0A0DE100E746F9DDE9692000096804A
:100A100084A0FED7040E006E002EFED700D000008A
:100A20009682040E006E002EFED72CEF06F074396D
:100A3000006E0F0E001600500A0DF3CF75F07451C2
:100A40000F0B7525016E12009682040E006E002EAB
:100A5000FED79680040E006E002EFED78D929692E1
:100A6000040E006E002EFED78D909690D00E746FFF
:100A700069DE6CC074F066DE6DC074F063DE969261
:100A80000000968084A0FED7040E006E002EFED7D4
:100A900000D000009682040E006E002EFED71200D9
:100AA000F86AD09E078E360E006E100E016E020E92
:100AB000E96E000EEA6EEE6A002EFDD7012EFBD71E
:100AC000700ED36E9B9C9B9E3D903D92406A416A06
:100AD000010E426E436A5E6A5F6A696B686B676BA0
:100AE000666B0F01386B396B3A6B3B6B3C6B776A0B
:100AF000786A796A720ED36E9B9C9B9E000E926EF2
:100B00003F0E936E000E946E956E9690969296940C
:100B10009696C150F00BC16E000E386F3C6F396F66
:100B20003A6F3B6F000144D6640E6C6F6EDEF2923A
:100B3000F18CF292F288C30ED56ED76A060ED66E8D
:100B4000F294F28A070ECD6ECC6A9D803C0E0F01A6
:100B5000506FB00E4F6F4D6B370E4E6F7D82480E4B
:100B60000609BA6EFA0EBB6E9D80C00EF212090E17
:100B7000266E380E256E39C047F038C046F037C0B3
:100B800045F036C044F0350E506E440E516E0A0EDC
:100B900000016C6F81DE01C05AF00B0E6C6F7CDEC1
:100BA00001C05BF00C0E6C6F77DE01C05CF00D0EC7
:100BB0006C6F72DE01C05DF05DC039F05CC038F072
:100BC0005BC037F05AC036F021B407D02194422AD6
:100BD0004250020802E2010E426E4250010A03E056
:100BE000030A0AE00FD039C047F038C046F037C0DA
:100BF00045F036C044F006D0476A466A4DC045F01D
:100C00004CC044F039C04BF038C04AF037C049F00E
:100C100036C048F048C056F049C057F04AC058F0B6
:100C20004BC059F0640E6C6FF0DD26C050F025C04B
:100C300051F021B21AD02192396A386A376A366A7D
:100C4000070E6C6F080E6D6F120E6E6F070E6F6FD2
:100C5000706B716B726B84D6D00E746F73DD070E80
:100C6000746F70DD100E746F6DDD9682040E006E71
:100C7000002EFED79680040E006E002EFED78D92B9
:100C80009692040E006E002EFED78D909690D00E98
:100C9000746F58DD746B56DD9682040E006E002E64
:100CA000FED79680040E006E002EFED784A0FED7DD
:100CB0008D929692040E006E002EFED78D90969027
:100CC000D10E746F3FDD010E006EB3DD01C06CF01C
:100CD00001C074F0ACDE01C024F0010E006EA9DD8D
:100CE00001C06CF001C074F0A2DE01C025F0010E5D
:100CF000006E9FDD01C06CF001C074F098DE01C091
:100D000026F0010E006E95DD01C06CF001C074F09C
:100D10008EDE01C02AF0010E006E8BDD01C06CF08A
:100D200001C074F084DE01C027F0010E006E81DD89
:100D300001C06CF001C074F07ADE01C028F0006AD6
:100D400078DD01C06CF001C074F071DE01C029F0E3
:100D500096920000968084A0FED7040E006E002EAE
:100D6000FED700D000009682040E006E002EFED743
:100D70000A0E6C6F56C06DF067DE0B0E6C6F57C0BD
:100D80006DF062DE0C0E6C6F58C06DF05DDE0D0E06
:0C0D90006C6F59C06DF058DE17D70300DF
:020000040030CA
:0E00000000281E3C003F81000FC00FE00F40A3
:00000001FF
;PIC18F46K22
;CRC=CC2B  CREATED="14-Nov-18 00:55"
