:040000002CEF05F0EC
:08000800046ED8CF05F0E0CF33
:1000100006F00001E9CF0CF0EACF07F0E1CF08F0DD
:10002000E2CF09F0D9CF0AF0DACF0BF0F3CF12F01C
:10003000F4CF13F0FACF14F0F5CF15F0F6CF16F099
:10004000F7CF17F000C00EF001C00FF002C010F0A3
:1000500003C011F0F2AA30EF00F0F2B41FEF03F08A
:100060009DA036EF00F09EB036EF03F0F2A83CEF13
:1000700000F0F2B25FEF03F00EC000F00FC001F02D
:1000800010C002F011C003F00CC0E9FF07C0EAFF86
:10009000078E08C0E1FF09C0E2FF0AC0D9FF0BC00C
:1000A000DAFF12C0F3FF13C0F4FF14C0FAFF15C04B
:1000B000F5FF16C0F6FF17C0F7FF045006C0E0FFBB
:1000C00005C0D8FF1000D8B203D0EA6A820EE96EEC
:1000D000006A016A026A036A826B836B846B856BB8
:1000E000815180117F117E112CE0200E866FD890F7
:1000F0007A377B377C377D3782378337843785374C
:100100008151855D08E18051845D05E17F51835D0A
:1001100002E17E51825D0FE37E51825F7F51D8A064
:100120007F3D835F8051D8A0803D845F8151D8A0FE
:10013000813D855FD8800036013602360336862F32
:10014000D6D782C0EFFF83C0ECFF84C0ECFF85C030
:10015000ECFF12003F0E756F060E766F5B0E776F29
:100160004F0E786F660E796F6D0E7A6F7D0E7B6F16
:10017000070E7C6F7D696F0E7E6F7F6B036A745113
:10018000750FE96E000E0320EA6EEFCF7FF07FC09F
:1001900001F01200712D69D1010E415CFA0FD8B047
:1001A00063D1060F46EF02F0D882EA6A720EE96E5A
:1001B0005EC07DF05DC07CF05CC07BF05BC07AF01F
:1001C000816B806B7F6B0A0E7E6F7DDF72C02BF0C0
:1001D0002BC074F0BFDF01C02CF0896A2CC08BFFEC
:1001E000200E896E41D1D8925EC07DF05DC07CF05A
:1001F0005CC07BF05BC07AF0816B806B7F6B0A0E1A
:100200007E6F61DF03C075F002C074F001C073F04F
:1002100000C072F0D882EA6A760EE96E03C07DF003
:1002200002C07CF001C07BF000C07AF0816B806B73
:100230007F6B0A0E7E6F47DF76C02BF02BC074F009
:1002400089DF01C02DF0896A2DC08BFF2B520AE196
:10025000325208E1335206E1345204E1355202E1F0
:10026000896A02D0100E896EFFD0D8925EC07DF0F0
:100270005DC07CF05CC07BF05BC07AF0816B806B12
:100280007F6B640E7E6F1FDF03C075F002C074F0D9
:1002900001C073F000C072F0D882EA6A760EE96E8F
:1002A00003C07DF002C07CF001C07BF000C07AF09A
:1002B000816B806B7F6B0A0E7E6F05DF76C02BF043
:1002C0002BC032F02BC074F045DF01C02EF0896ADC
:1002D0002EC08BFF2B5208E1335206E1345204E169
:1002E000355202E1896A02D0080E896EBDD0D892DB
:1002F0005EC07DF05DC07CF05CC07BF05BC07AF0DE
:10030000816B806B030E7F6FE80E7E6FDCDE03C0B7
:1003100075F002C074F001C073F000C072F0D882B2
:10032000EA6A760EE96E03C07DF002C07CF001C07F
:100330007BF000C07AF0816B806B7F6B0A0E7E6F62
:10034000C2DE76C02BF02BC033F02BC074F002DF7E
:1003500001C02FF0896A2FC08BFF2B5206E1345267
:1003600004E1355202E1896A02D0040E896E7CD024
:10037000D8925EC07DF05DC07CF05CC07BF05BC05D
:100380007AF0816B806B270E7F6F100E7E6F9BDE85
:1003900003C075F002C074F001C073F000C072F0C9
:1003A000D882EA6A760EE96E03C07DF002C07CF066
:1003B00001C07BF000C07AF0816B806B7F6B0A0E0E
:1003C0007E6F81DE76C02BF02BC034F02BC074F032
:1003D000C1DE01C030F0896A30C08BFF2B5204E1CE
:1003E000355202E1896A02D0020E896E3DD0D89260
:1003F0005EC07DF05DC07CF05CC07BF05BC07AF0DD
:10040000816B010E806F860E7F6FA00E7E6F5BDEAC
:1004100003C075F002C074F001C073F000C072F048
:10042000D882EA6A760EE96E03C07DF002C07CF0E5
:1004300001C07BF000C07AF0816B806B7F6B0A0E8D
:100440007E6F41DE76C02BF02BC035F02BC074F0F0
:1004500081DE01C031F0896A31C08BFF2B5202E18D
:10046000896A02D0010E896E01D0896A412A415001
:1004700006080AE2010E416E70C05EF06FC05DF0CA
:100480006EC05CF06DC05BF02AEF03F0E824F76A01
:10049000F736A70FF66E040EF7220A00F550FA6E33
:1004A0000800F550F96EA801E6016A02EE02700339
:1004B000EE037651016A755D03E275C000F00CD061
:1004C000006A080E776F753700367651005CD8B039
:1004D000006E0136772FF7D712008C908C92010EA8
:1004E000766F7651080816E375C003F074C0E9FF13
:1004F00075C0EAFFEF50800B02E18C9401D08C8430
:1005000075C0EAFF74C0E9FFD890EF368C808C90FC
:10051000762BE7D78C828C921200010E425CFC0F86
:10052000D8B070D0040F0EEF03F05FC075F00A0E64
:10053000766FBFDF00C070F070C074F00BDE01C0DA
:1005400070F08C968C988C9A8C9C756B700E746F76
:10055000C4DF8C968C988C9A8C8C54D05FC075F0CC
:100560000A0E766FA6DF01C075F00A0E766FA1DF66
:1005700000C071F071C074F0EDDD01C071F08C96B7
:100580008C988C9A8C9C756B710E746FA6DF8C9610
:100590008C988C8A8C9C36D060C075F00A0E766F71
:1005A00088DF00C072F072C074F0D4DD01C072F058
:1005B0008C968C988C9A8C9C756B720E746F8DDFF8
:1005C0008C968C888C9A8C9C1DD060C075F00A0E1D
:1005D000766F6FDF01C075F00A0E766F6ADF00C0BC
:1005E00073F073C074F0B6DD01C073F08C968C9814
:1005F0008C9A8C9C756B730E746F6FDF8C868C98E5
:100600008C9A8C9C422A4250040806E2010E426EEB
:100610006EC05FF06FC060F02FEF03F0E824F76A60
:10062000F736370FF66E060EF7220A00F550FA6E0F
:100630000800F550F96E2A055C059805CA0546C004
:1006400070F045C06FF044C06EF043C06DF0010E15
:10065000716FA0D548C06EF047C06FF05ED7D76A03
:10066000060ED66EF294F2943CEF00F08D74D70E25
:10067000CF6ECE681B2AD8B41C2A1B50E8080BE1A9
:100680001C2C09D01C6A1B6A1D2A1A801D503B08AD
:1006900002E21D6A1E2A219081B22180219281B638
:1006A0002182219481B42184219681B821862198C8
:1006B00081BA21883D8204009E903CEF00F0F292C6
:1006C000010E3626D8B0372AD8B4382AD8B4392AF9
:1006D00039520DE138500E080EE2FF0A08E137509A
:1006E000410809E2FF0A03E136503F0804E2396A93
:1006F000386A376A366AF2923CEF00F0080E016EF3
:10070000040E006E002EFED78D909690040E006EA3
:10071000002EFED769378D92D8B09682D8A09692D7
:10072000968084A0FED7012EEBD7040E006E002E1B
:10073000FED78D90969000009682040E006E002EDB
:10074000FED7040E006E002EFED7968084A0FED742
:10075000016A040E006E002EFED784B201808D90D7
:1007600096908D92969212009682040E006E002E44
:10077000FED79680040E006E002EFED78D929692C4
:10078000040E006E002EFED78D909690D00E696FED
:10079000B5DF070E696FB2DF100E696FAFDF96929B
:1007A0000000968084A0FED7040E006E002EFED7B7
:1007B00000D000009682040E006E002EFED76CEF73
:1007C00005F0EA6A610EE96EEF500EE0050E016E6B
:1007D000006A002EFED7012EFBD72E0E006E002ED3
:1007E000FED700D0EF2EF2D71200080E696F00C0BE
:1007F0006AF09682040E006E002EFED7968084A0CA
:10080000FED784B2D88084A2D8900136040E006E40
:10081000002EFED796908D90692FEBD79682040E0E
:10082000006E002EFED78D926A51D8A496920000D9
:10083000968084A0FED7040E006E002EFED78D9009
:100840009690040E006E002EFED78D9296921200A6
:100850009682040E006E002EFED79680040E006E67
:10086000002EFED78D929692040E006E002EFED7BB
:100870008D909690D00E696F41DF61C069F03EDFC8
:100880009682040E006E002EFED79680040E006E37
:10089000002EFED784A0FED78D929692040E006E95
:1008A000002EFED78D909690D10E696F27DF006ADB
:1008B0009CDF01C062F096920000968084A0FED773
:1008C000040E006E002EFED700D000009682040EAB
:1008D000006E002EFED762C001F01200196AF2BE4F
:1008E000198EF29E68C075F00A0E766FE2DD19BEB1
:1008F000F28E0138696FF00E6917196AF2BE198E0F
:10090000F29E68C075F00A0E766FD3DD19BEF28EC6
:1009100000506925016E1200679F3F0E6517968291
:10092000040E006E002EFED79680040E006E002E80
:10093000FED78D929692040E006E002EFED78D90FB
:100940009690D00E696FDADE696BD8DE67C068F00A
:10095000C5DF01C068F001C069F0D0DE66C068F094
:10096000BDDF01C068F001C069F0C8DE65C068F095
:10097000B5DF01C068F001C069F0C0DE64C068F096
:10098000ADDF01C068F001C069F0B8DE61C068F099
:10099000A5DF01C068F001C069F0B0DE62C068F098
:1009A0009DDF01C068F001C069F0A8DE63C068F097
:1009B00095DF01C068F001C069F0A0DE100E696F1C
:1009C0009DDE96920000968084A0FED7040E006EF5
:1009D000002EFED700D000009682040E006E002E7E
:1009E000FED7DCEF05F06939006E0F0E00160050DF
:1009F0000A0DF3CF6AF069510F0B6A25016E1200E0
:100A00009682040E006E002EFED79680040E006EB5
:100A1000002EFED78D929692040E006E002EFED709
:100A20008D909690D00E696F69DE61C069F066DEC8
:100A300062C069F063DE96920000968084A0FED7C3
:100A4000040E006E002EFED700D000009682040E29
:100A5000006E002EFED71200F86AD09E078E360E6A
:100A6000006E100E016E020EE96E000EEA6EEE6A66
:100A7000002EFDD7012EFBD7700ED36E9B9C9B9E44
:100A80003D903D92406A416A426A5E6A5D6A5C6A74
:100A90005B6A0F01386B396B3A6B3B6B3C6B776A67
:100AA000786A796A720ED36E9B9C9B9E000E926E42
:100AB0003F0E936E000E946E956E9690969296945D
:100AC0009696C150F00BC16E000E386F3C6F396FB7
:100AD0003A6F3B6F000148D6640E616F72DEF2928E
:100AE000F18CF292F288C30ED56ED76A060ED66EDE
:100AF000F294F28A070ECD6ECC6A9D80480E0609EC
:100B0000BA6EFA0EBB6E9D80C00EF212090E266EF2
:100B1000380E256E39C046F038C045F037C044F075
:100B200036C043F0350E476E440E486E0A0E616FB4
:100B30008FDE01C051F00B0E616F8ADE01C052F0F2
:100B40000C0E616F85DE01C053F00D0E616F80DE0B
:100B500001C054F054C039F053C038F052C037F0DF
:100B600051C036F039C046F038C045F037C044F0C7
:100B700036C043F043C04DF044C04EF045C04FF086
:100B800046C050F0640E616F1CDE26C047F025C0E1
:100B900048F021B21AD02192396A386A376A366A27
:100BA000070E616F080E626F120E636F070E646F9F
:100BB000656B666B676BB0D6D00E696F9FDD070EF5
:100BC000696F9CDD100E696F99DD9682040E006ED0
:100BD000002EFED79680040E006E002EFED78D925A
:100BE0009692040E006E002EFED78D909690D00E39
:100BF000696F84DD696B82DD9682040E006E002EC3
:100C0000FED79680040E006E002EFED784A0FED77D
:100C10008D929692040E006E002EFED78D909690C7
:100C2000D10E696F6BDD010E006EDFDD01C061F07A
:100C300001C069F0D8DE01C024F0010E006ED5DDE0
:100C400001C061F001C069F0CEDE01C025F0010EE7
:100C5000006ECBDD01C061F001C069F0C4DE01C0EF
:100C600026F0010E006EC1DD01C061F001C069F027
:100C7000BADE01C02AF0010E006EB7DD01C061F0DE
:100C800001C069F0B0DE01C027F0010E006EADDDDD
:100C900001C061F001C069F0A6DE01C028F0006A61
:100CA000A4DD01C061F001C069F09DDE01C029F042
:100CB00096920000968084A0FED7040E006E002E4F
:100CC000FED700D000009682040E006E002EFED7E4
:100CD0000A0E616F4DC062F093DE0B0E616F4EC065
:100CE00062F08EDE0C0E616F4FC062F089DE0D0E79
:0C0CF000616F50C062F084DE35D7030055
:020000040030CA
:0E00000000281E3C003F81000FC00FE00F40A3
:00000001FF
;PIC18F46K22
;CRC=112E  CREATED="16-Oct-18 04:30"
