:04000000CBEF06F04C
:08000800046ED8CF05F0E0CF33
:1000100006F00001E9CF0CF0EACF07F0E1CF08F0DD
:10002000E2CF09F0D9CF0AF0DACF0BF0F3CF12F01C
:10003000F4CF13F0FACF14F0F5CF15F0F6CF16F099
:10004000F7CF17F000C00EF001C00FF002C010F0A3
:1000500003C011F0F2AA30EF00F0F2B4B8EF04F0F0
:100060009DA036EF00F09EB0CAEF04F0F2A83CEF7E
:1000700000F0F2B263EF00F00EC000F00FC001F02C
:1000800010C002F011C003F00CC0E9FF07C0EAFF86
:10009000078E08C0E1FF09C0E2FF0AC0D9FF0BC00C
:1000A000DAFF12C0F3FF13C0F4FF14C0FAFF15C04B
:1000B000F5FF16C0F6FF17C0F7FF045006C0E0FFBB
:1000C00005C0D8FF1000F292010E3626D8B0372AAC
:1000D000D8B4382AD8B4392A39520DE138500E082C
:1000E0000EE2FF0A08E13750410809E2FF0A03E186
:1000F00036503F0804E2396A386A376A366AF29243
:100100003CEF00F06D6B6E6B010E6F6FDA6AD96AAF
:10011000726B650E716FEA6A690EE96E72C0E2FF7A
:1001200071C0E1FF6FC070F0D890E550EE02F3505F
:100130006D23F4506E23702FF7D76DC0DEFF6EC0B5
:100140006DF06E6BD8B06E2B712BD8B4722B6F2BF9
:100150006F510508E0E11200D8B203D0EA6A710ECF
:10016000E96E006A016A026A036A716B726B736BF3
:10017000746B70516F116E116D112CE0200E756F44
:10018000D89069376A376B376C3771377237733786
:1001900074377051745D08E16F51735D05E16E5104
:1001A000725D02E16D51715D0FE36D51715F6E51D2
:1001B000D8A06E3D725F6F51D8A06F3D735F7051D4
:1001C000D8A0703D745FD880003601360236033601
:1001D000752FD6D771C0EFFF72C0ECFF73C0ECFF74
:1001E00074C0ECFF12003F0E626F060E636F5B0E71
:1001F000646F4F0E656F660E666F6D0E676F7D0ED6
:10020000686F070E696F6A696F0E6B6F6C6B036ABC
:100210006151620FE96E000E0320EA6EEFCF6CF0C1
:100220006CC001F01200EA6A610EE96EEF500DE059
:10023000060E016E006A002EFED7012EFBD77B0E44
:10024000006E002EFED7EF2EF3D712005BC068F0D1
:100250005AC067F059C066F058C065F06C6B6B6BA4
:10026000030E6A6FE80E696F4DDF03C064F002C0D1
:1002700063F001C062F000C061F0D89203C06CF07E
:1002800002C06BF001C06AF000C069F0706B6F6B68
:100290006E6B640E6D6F60DF03C064F002C063F0CC
:1002A00001C062F000C061F003C068F002C067F0F6
:1002B00001C066F000C065F06C6B6B6B030E6A6F7B
:1002C000E80E696F1FDF03C064F002C063F001C075
:1002D00062F000C061F0D89203C06CF002C06BF015
:1002E00001C06AF000C069F0706B6F6B6E6B0A0E34
:1002F0006D6F32DF03C064F002C063F001C062F0D2
:1003000000C061F003C068F002C067F001C066F091
:1003100000C065F06C6B6B6B6A6B3C0E696FF2DE54
:1003200003C060F002C05FF001C05EF000C05DF08D
:10033000D89260C06CF05FC06BF05EC06AF05DC0C8
:1003400069F0706B6F6B030E6E6FE80E6D6F04DFFC
:1003500003C060F002C05FF001C05EF000C05DF05D
:100360005C52D8A46ED1D882EA6A610EE96E60C090
:100370006CF05FC06BF05EC06AF05DC069F0706BDE
:100380006F6B6E6B0A0E6D6FE7DE61C02BF02BC0DA
:1003900061F029DF01C02CF0896A2CC08BFF200E90
:1003A000896E050E616F3FDFD89260C06CF05FC050
:1003B0006BF05EC06AF05DC069F0706B6F6B6E6B66
:1003C0000A0E6D6FC9DE03C064F002C063F001C0A5
:1003D00062F000C061F0D882EA6A650EE96E03C07F
:1003E0006CF002C06BF001C06AF000C069F0706B85
:1003F0006F6B6E6B0A0E6D6FAFDE65C02BF02BC09E
:1004000061F0F1DE01C02DF0896A2DC08BFF2B5207
:100410000AE1325208E1335206E1345204E1355226
:1004200002E1896A02D0100E896E050E616FFBDE53
:10043000D89260C06CF05FC06BF05EC06AF05DC0C7
:1004400069F0706B6F6B6E6B640E6D6F85DE03C051
:1004500064F002C063F001C062F000C061F0D882B5
:10046000EA6A650EE96E03C06CF002C06BF001C071
:100470006AF000C069F0706B6F6B6E6B0A0E6D6F87
:100480006BDE65C02BF02BC032F02BC061F0ABDE11
:1004900001C02EF0896A2EC08BFF2B5208E1335227
:1004A00006E1345204E1355202E1896A02D0080EB5
:1004B000896E050E616FB7DED89260C06CF05FC0C8
:1004C0006BF05EC06AF05DC069F0706B6F6B030E1D
:1004D0006E6FE80E6D6F40DE03C064F002C063F023
:1004E00001C062F000C061F0D882EA6A650EE96E70
:1004F00003C06CF002C06BF001C06AF000C069F08C
:10050000706B6F6B6E6B0A0E6D6F26DE65C02BF025
:100510002BC033F02BC061F066DE01C02FF0896A7A
:100520002FC08BFF2B5206E1345204E1355202E119
:10053000896A02D0040E896E050E616F74DED8924E
:1005400060C06CF05FC06BF05EC06AF05DC069F0C7
:10055000706B6F6B270E6E6F100E6D6FFDDD03C03D
:1005600064F002C063F001C062F000C061F0D882A4
:10057000EA6A650EE96E03C06CF002C06BF001C060
:100580006AF000C069F0706B6F6B6E6B0A0E6D6F76
:10059000E3DD65C02BF02BC034F02BC061F023DE0F
:1005A00001C030F0896A30C08BFF2B5204E1355214
:1005B00002E1896A02D0020E896E050E616F33DE98
:1005C000D89260C06CF05FC06BF05EC06AF05DC036
:1005D00069F0706B010E6F6F860E6E6FA00E6D6FFF
:1005E000BBDD03C064F002C063F001C062F000C074
:1005F00061F0D882EA6A650EE96E03C06CF002C051
:100600006BF001C06AF000C069F0706B6F6B6E6BCD
:100610000A0E6D6FA1DD65C02BF02BC035F02BC02D
:1006200061F0E1DD01C031F0896A31C08BFF2B52EE
:1006300002E1896A02D0010E896E050E616FF3DD59
:1006400001D0896AABEF04F05C52D8A46ED1D88295
:10065000EA6A5D0EE96E5BC06CF05AC06BF059C07F
:100660006AF058C069F0706B6F6B6E6B0A0E6D6F3D
:1006700073DD5DC02BF02BC061F0B5DD01C02CF047
:10068000896A2CC08BFF200E896E050E616FCBDD51
:10069000D8925BC06CF05AC06BF059C06AF058C079
:1006A00069F0706B6F6B6E6B0A0E6D6F55DD03C07A
:1006B00060F002C05FF001C05EF000C05DF0D88263
:1006C000EA6A610EE96E03C06CF002C06BF001C013
:1006D0006AF000C069F0706B6F6B6E6B0A0E6D6F25
:1006E0003BDD61C02BF02BC061F07DDD01C02DF042
:1006F000896A2DC08BFF2B520AE1325208E1335236
:1007000006E1345204E1355202E1896A02D0100E4A
:10071000896E050E616F87DDD8925BC06CF05AC0A0
:100720006BF059C06AF058C069F0706B6F6B6E6BFC
:10073000640E6D6F11DD03C060F002C05FF001C098
:100740005EF000C05DF0D882EA6A610EE96E03C017
:100750006CF002C06BF001C06AF000C069F0706B11
:100760006F6B6E6B0A0E6D6FF7DC61C02BF02BC0E8
:1007700032F02BC061F037DD01C02EF0896A2EC047
:100780008BFF2B5208E1335206E1345204E135521B
:1007900002E1896A02D0080E896E050E616F43DDA1
:1007A000D8925BC06CF05AC06BF059C06AF058C068
:1007B00069F0706B6F6B030E6E6FE80E6D6FCCDCC3
:1007C00003C060F002C05FF001C05EF000C05DF0E9
:1007D000D882EA6A610EE96E03C06CF002C06BF069
:1007E00001C06AF000C069F0706B6F6B6E6B0A0E2F
:1007F0006D6FB2DC61C02BF02BC033F02BC061F009
:10080000F2DC01C02FF0896A2FC08BFF2B5206E16A
:10081000345204E1355202E1896A02D0040E896E35
:10082000050E616F00DDD8925BC06CF05AC06BF0B2
:1008300059C06AF058C069F0706B6F6B270E6E6F0D
:10084000100E6D6F89DC03C060F002C05FF001C064
:100850005EF000C05DF0D882EA6A610EE96E03C006
:100860006CF002C06BF001C06AF000C069F0706B00
:100870006F6B6E6B0A0E6D6F6FDC61C02BF02BC05F
:1008800034F02BC061F0AFDC01C030F0896A30C0B9
:100890008BFF2B5204E1355202E1896A02D0020E2D
:1008A000896E050E616FBFDCD8925BC06CF05AC0D8
:1008B0006BF059C06AF058C069F0706B010E6F6F31
:1008C000860E6E6FA00E6D6F47DC03C060F002C035
:1008D0005FF001C05EF000C05DF0D882EA6A610E90
:1008E000E96E03C06CF002C06BF001C06AF000C09A
:1008F00069F0706B6F6B6E6B0A0E6D6F2DDC61C0F3
:100900002BF02BC035F02BC061F06DDC01C031F055
:10091000896A31C08BFF2B5202E1896A02D0010E35
:10092000896E050E616F7FDC01D0896AB6EF04F035
:10093000575205E1396A386A376A366A17D03DA0DE
:100940000BD056C05BF055C05AF054C059F053C09C
:1009500058F05C6A7BD40AD056C05BF055C05AF0A0
:1009600054C059F053C058F05C6A6ED6C7EF04F01B
:10097000F294000E21B2010E526E39C056F038C00A
:1009800055F037C054F036C053F0576ED1D7F294BB
:100990003CEF00F0D70ECF6ECE681B2AD8B41C2ACD
:1009A0001B50E8080BE11C2C09D01C6A1B6A1D2A8D
:1009B0001A801D503B0802E21D6A1E2A219081B256
:1009C0002180219281B62182219481B421842196B3
:1009D00081B82186219881BA21883D8204009E90A9
:1009E0003CEF00F0080E016E050E006E002EFED7E3
:1009F0008D909690060E006E002EFED74B368D928F
:100A0000D8B09682D8A09692968084A0FED7012E68
:100A1000EBD7050E006E002EFED78D90969000004D
:100A20009682060E006E002EFED7060E006E002E79
:100A3000FED7968084A0FED7016A060E006E002EB7
:100A4000FED784B201808D9096908D92969212007E
:100A50009682050E006E002EFED79680060E006E62
:100A6000002EFED78D929692050E006E002EFED7B8
:100A70008D909690D00E4B6EB5DF070E4B6EB2DFA9
:100A80004B6AB0DF96920000968084A0FED7050ED8
:100A9000006E002EFED700D000009682050E006E7C
:100AA000002EFED7F4EF06F021A801D03D863DA62A
:100AB00008D021B806D03D96402A4050030801E2F4
:100AC000406ABCEF05F05050016A4F5C03E24FC032
:100AD00000F00CD0006A080E516E4F3600365050B0
:100AE000005CD8B0006E0136512EF7D712004AC014
:100AF0004FF00A0E506EE7DF01384B6EF00E4B16CA
:100B00004AC04FF00A0E506EDEDF00504B24016EDB
:100B1000A5EF05F09682050E006E002EFED796809A
:100B2000060E006E002EFED78D929692050E006E78
:100B3000002EFED78D909690D00E4B6E53DF48C09E
:100B40004BF050DF49C04AF0D2D701C04AF001C093
:100B50004BF048DF96920000968084A0FED7050EE9
:100B6000006E002EFED700D000009682050E006EAB
:100B7000002EFED7120098D7476A402C0FD047505E
:100B8000090803E33D80472AFAD721B802D0476A13
:100B900004D04750050801E1406A5BD0405002088C
:100BA0002BE13D90475009081EE321A403D021A664
:100BB00001D03D843DA410D021B406D03D943B2A01
:100BC0003B503B0801E23B6A21B606D03D943B52C4
:100BD00002E1010E3B6E3B06472A010E486E3BC008
:100BE00049F098DFDFD721B802D0476A04D04750D8
:100BF000050801E1406A2DD0405003082AE1475022
:100C000009081FE321A403D021A601D03D843DA4FF
:100C100011D021B407D03D943A2A3A500C0802E290
:100C2000010E3A6E21B606D03D943A5202E1010E11
:100C30003A6E3A06472A010E486E3AC049F06ADF1A
:100C4000DED721B802D0476A04D04750050801E139
:100C5000406A0BEF07F08C908C92010E506E505052
:100C6000080816E34FC003F04EC0E9FF4FC0EAFF8B
:100C7000EF50800B02E18C9401D08C844FC0EAFFCE
:100C80004EC0E9FFD890EF368C808C90502AE7D781
:100C90008C828C92120049C04FF00A0E506E13DF06
:100CA00000C04AF08C968C988C9A8C9C4F6A4A0EA5
:100CB0004E6ED1DF8C968C988C9A8C8C196AF2BE11
:100CC000198EF29E010E616F13EC01F019BEF28EC7
:100CD00049C04FF00A0E506EF6DE01C04FF00A0E0A
:100CE000506EF1DE00C04BF08C968C988C9A8C9CE8
:100CF0004F6A4B0E4E6EAFDF8C968C988C8A8C9C14
:100D0000196AF2BE198EF29E010E616F13EC01F0AA
:100D100019BEF28E48C04FF00A0E506ED4DE00C0ED
:100D20004CF08C968C988C9A8C9C4F6A4C0E4E6E24
:100D300092DF8C968C888C9A8C9C196AF2BE198EE4
:100D4000F29E010E616F13EC01F019BEF28E48C0E5
:100D50004FF00A0E506EB7DE01C04FF00A0E506E13
:100D6000B2DE00C04DF08C968C988C9A8C9C4F6AA9
:100D70004D0E4E6E70DF8C868C988C9A8C9C196A06
:100D8000F2BE198EF29E010E616F13EC01F019BED6
:100D9000F28E10EF07F0F86AD09E078E360E006EC6
:100DA000100E016E020EE96E000EEA6EEE6A002E63
:100DB000FDD7012EFBD73D903D92406A0F01386B65
:100DC000396B3A6B3B6B3C6B776A786A796A000ED9
:100DD000926E3F0E936E000E946E956E9690969264
:100DE00096949696000134D6010E616EF19EF19CA8
:100DF000F292F288C50ED56ED76AD66AF294F28A5C
:100E0000070ECD6ECC6A9D80C00EF212090E266EC2
:100E1000380E256EB0D626C048F025C049F03BD725
:040E2000F9D70300FB
:020000040030CA
:0E00000000F2193C00BF81000FC00FE00F405E
:00000001FF
;PIC18F46K22
;CRC=79DC  CREATED="13-May-18 13:55"
